:100000000EC01DC01CC01BC01AC092C018C017C0B3
:1000100016C015C014C013C012C011C010C01124E6
:100020001FBECFE5D2E0DEBFCDBF20E0A0E6B0E04E
:1000300001C01D92A936B207E1F7C4D0F1C0E0CFEC
:100040003FB7F8948091650090916600A091670099
:10005000B091680022B708B601FE05C02F3F19F025
:100060000196A11DB11D3FBFBA2FA92F982F882738
:10007000BC01CD01620F711D811D911D43E0660F12
:10008000771F881F991F4A95D1F70895CF92DF9265
:10009000EF92FF92CF93DF936B017C01D1DFEB01F5
:1000A000CFDF6C1B7D0B683E7340A0F0C114D10400
:1000B000E104F10439F4DF91CF91FF90EF90DF90EC
:1000C000CF90089581E0C81AD108E108F108C8511D
:1000D000DC4FE6CFC114D104E104F10409F7EBCF02
:1000E0008FB7F894B99A8FBF089590B79F7D90BF4E
:1000F000811105C08FB7F894C1988FBF08958FB74D
:10010000F894C19AFACFCF93DF93EC01E9DF80E056
:10011000209721F0CF3FD10521F481E0DF91CF91ED
:10012000E4CF80B7806280BFCEBDDF91CF910895CC
:100130001F920F920FB60F9211242F933F938F931C
:100140009F93AF93BF938091610090916200A091C3
:100150006300B09164003091600026E0230F2D37DA
:1001600068F129E8230F0396A11DB11D20936000BB
:100170008093610090936200A0936300B093640049
:100180008091650090916600A0916700B091680031
:100190000196A11DB11D8093650090936600A09308
:1001A0006700B0936800BF91AF919F918F913F918D
:1001B0002F910F900FBE0F901F9018950296A11DC2
:1001C000B11DD4CF83E08ABD83BF789489B78260A4
:1001D00089BF80E48CBD8FEF8DBD87EC80BF86E842
:1001E00086B97EDFD0E0C0E0CE018DDF65E070E053
:1001F00080E090E04BDF2196CF3FD105A9F7CE01FB
:1002000082DF65E070E080E090E040DF2197B9F7A1
:1002100080E06BDF68EE73E080E090E037DFE2CFF4
:04022000F894FFCF80
:00000001FF
